{
  "_format": "hh-sol-artifact-1",
  "contractName": "Caller",
  "sourceName": "contracts/Caller.sol",
  "abi": [
    {
      "inputs": [
        {
          "internalType": "address",
          "name": "_logic",
          "type": "address"
        }
      ],
      "stateMutability": "nonpayable",
      "type": "constructor"
    },
    {
      "anonymous": false,
      "inputs": [
        {
          "indexed": false,
          "internalType": "bool",
          "name": "entered",
          "type": "bool"
        }
      ],
      "name": "enteredFallback",
      "type": "event"
    },
    {
      "stateMutability": "nonpayable",
      "type": "fallback"
    },
    {
      "inputs": [],
      "name": "logicContract",
      "outputs": [
        {
          "internalType": "address",
          "name": "",
          "type": "address"
        }
      ],
      "stateMutability": "view",
      "type": "function"
    },
    {
      "inputs": [],
      "name": "x",
      "outputs": [
        {
          "internalType": "uint256",
          "name": "",
          "type": "uint256"
        }
      ],
      "stateMutability": "view",
      "type": "function"
    }
  ],
  "bytecode": "0x608060405234801561001057600080fd5b5060405161064f38038061064f833981810160405281019061003291906100dc565b80600160006101000a81548173ffffffffffffffffffffffffffffffffffffffff021916908373ffffffffffffffffffffffffffffffffffffffff16021790555050610109565b600080fd5b600073ffffffffffffffffffffffffffffffffffffffff82169050919050565b60006100a98261007e565b9050919050565b6100b98161009e565b81146100c457600080fd5b50565b6000815190506100d6816100b0565b92915050565b6000602082840312156100f2576100f1610079565b5b6000610100848285016100c7565b91505092915050565b610537806101186000396000f3fe608060405234801561001057600080fd5b506004361061003a5760003560e01c80630c55699c14610167578063cc0e97c9146101855761003b565b5b61005d6040518060600160405280602381526020016104df60239139336101a3565b6000600160009054906101000a900473ffffffffffffffffffffffffffffffffffffffff1673ffffffffffffffffffffffffffffffffffffffff166000366040516100a99291906102d3565b600060405180830381855af49150503d80600081146100e4576040519150601f19603f3d011682016040523d82523d6000602084013e6100e9565b606091505b505090508061012d576040517f08c379a000000000000000000000000000000000000000000000000000000000815260040161012490610349565b60405180910390fd5b7f909544ad18c8ff2817afd2f8092d074459e37b447c2a91e09ce2946333e9f3e4600160405161015d9190610384565b60405180910390a1005b61016f61023f565b60405161017c91906103b8565b60405180910390f35b61018d610245565b60405161019a9190610414565b60405180910390f35b61023b82826040516024016101b99291906104ae565b6040516020818303038152906040527f319af333000000000000000000000000000000000000000000000000000000007bffffffffffffffffffffffffffffffffffffffffffffffffffffffff19166020820180517bffffffffffffffffffffffffffffffffffffffffffffffffffffffff838183161783525050505061026b565b5050565b60005481565b600160009054906101000a900473ffffffffffffffffffffffffffffffffffffffff1681565b60008151905060006a636f6e736f6c652e6c6f679050602083016000808483855afa5050505050565b600081905092915050565b82818337600083830152505050565b60006102ba8385610294565b93506102c783858461029f565b82840190509392505050565b60006102e08284866102ae565b91508190509392505050565b600082825260208201905092915050565b7f556e6578706563746564206572726f7200000000000000000000000000000000600082015250565b60006103336010836102ec565b915061033e826102fd565b602082019050919050565b6000602082019050818103600083015261036281610326565b9050919050565b60008115159050919050565b61037e81610369565b82525050565b60006020820190506103996000830184610375565b92915050565b6000819050919050565b6103b28161039f565b82525050565b60006020820190506103cd60008301846103a9565b92915050565b600073ffffffffffffffffffffffffffffffffffffffff82169050919050565b60006103fe826103d3565b9050919050565b61040e816103f3565b82525050565b60006020820190506104296000830184610405565b92915050565b600081519050919050565b60005b8381101561045857808201518184015260208101905061043d565b60008484015250505050565b6000601f19601f8301169050919050565b60006104808261042f565b61048a81856102ec565b935061049a81856020860161043a565b6104a381610464565b840191505092915050565b600060408201905081810360008301526104c88185610475565b90506104d76020830184610405565b939250505056fe6d73672e73656e64657220696e207468652043616c6c657220636f6e74726163743a20a2646970667358221220e40cff894b015f2c362b447cd7e897c9ed565a147eaee6b25700018d05bc4cc864736f6c63430008110033",
  "linkReferences": {},
  "deployedLinkReferences": {}
}