{
  "_format": "hh-sol-artifact-1",
  "contractName": "Called",
  "sourceName": "contracts/Called.sol",
  "abi": [
    {
      "inputs": [],
      "name": "increaseX",
      "outputs": [],
      "stateMutability": "nonpayable",
      "type": "function"
    },
    {
      "inputs": [],
      "name": "x",
      "outputs": [
        {
          "internalType": "uint256",
          "name": "",
          "type": "uint256"
        }
      ],
      "stateMutability": "view",
      "type": "function"
    }
  ],
  "bytecode": "0x608060405234801561001057600080fd5b5061036e806100206000396000f3fe608060405234801561001057600080fd5b50600436106100365760003560e01c80630c55699c1461003b578063309803c714610059575b600080fd5b610043610063565b6040516100509190610182565b60405180910390f35b610061610069565b005b60005481565b60008081548092919061007b906101cc565b91905055506100a260405180606001604052806023815260200161031660239139336100a4565b565b61013c82826040516024016100ba9291906102e5565b6040516020818303038152906040527f319af333000000000000000000000000000000000000000000000000000000007bffffffffffffffffffffffffffffffffffffffffffffffffffffffff19166020820180517bffffffffffffffffffffffffffffffffffffffffffffffffffffffff8381831617835250505050610140565b5050565b60008151905060006a636f6e736f6c652e6c6f679050602083016000808483855afa5050505050565b6000819050919050565b61017c81610169565b82525050565b60006020820190506101976000830184610173565b92915050565b7f4e487b7100000000000000000000000000000000000000000000000000000000600052601160045260246000fd5b60006101d782610169565b91507fffffffffffffffffffffffffffffffffffffffffffffffffffffffffffffffff82036102095761020861019d565b5b600182019050919050565b600081519050919050565b600082825260208201905092915050565b60005b8381101561024e578082015181840152602081019050610233565b60008484015250505050565b6000601f19601f8301169050919050565b600061027682610214565b610280818561021f565b9350610290818560208601610230565b6102998161025a565b840191505092915050565b600073ffffffffffffffffffffffffffffffffffffffff82169050919050565b60006102cf826102a4565b9050919050565b6102df816102c4565b82525050565b600060408201905081810360008301526102ff818561026b565b905061030e60208301846102d6565b939250505056fe6d73672e73656e64657220696e207468652043616c6c656420636f6e74726163743a20a2646970667358221220026aa9e1e25d5bf2bb8b8feda49bea6fe121bfe2eaca6d5d0093113664a3943364736f6c63430008110033",
  "linkReferences": {},
  "deployedLinkReferences": {}
}